:030000000208955E
:0C089500787FE4F6D8FD75810D020800A4
:10086700E4F50AF50BC3E50B9FE50A9E500A050B55
:10087700E50B70F1050A80EDE4F50CF50D050DE5C6
:0E0887000D7002050CB4FBF5E50CB404F02274
:10080000E5905407750800F50964034508700B7FEF
:1008100014FE12086775A00680E6E5096405450820
:100820006008E50964014508700575A00A80D1E5F6
:1008300009640245086018E509640645086010E58A
:1008400009640445086008E50964074508700C75EB
:10085000A0097F0A7E0012086780A57F1E7E001215
:070860000867E4F5A0809990
:00000001FF
